{
  "data": {
    "bytecode": {
      "linkReferences": {},
      "object": "608060405234801561001057600080fd5b50336000806101000a81548173ffffffffffffffffffffffffffffffffffffffff021916908373ffffffffffffffffffffffffffffffffffffffff16021790555061154a806100606000396000f3fe6080604052600436106100a75760003560e01c80639fa52cab116100645780639fa52cab146101be578063a44b7f56146101e9578063a8fa599314610212578063c0675b291461021c578063fab9811714610247578063fb949a7014610272576100a7565b806321f4ae14146100ac5780632b2aee5d146100d757806330ecfc311461011457806375df596a1461013f5780637b8c8de11461016a57806380710f39146101a7575b600080fd5b3480156100b857600080fd5b506100c161029d565b6040516100ce91906109e7565b60405180910390f35b3480156100e357600080fd5b506100fe60048036038101906100f99190610a42565b610334565b60405161010b9190610ab0565b60405180910390f35b34801561012057600080fd5b50610129610373565b60405161013691906109e7565b60405180910390f35b34801561014b57600080fd5b506101546103ba565b60405161016191906109e7565b60405180910390f35b34801561017657600080fd5b50610191600480360381019061018c9190610af7565b6103c0565b60405161019e91906109e7565b60405180910390f35b3480156101b357600080fd5b506101bc6103d8565b005b3480156101ca57600080fd5b506101d36104d5565b6040516101e09190610bb4565b60405180910390f35b3480156101f557600080fd5b50610210600480360381019061020b9190610d0b565b610563565b005b61021a610604565b005b34801561022857600080fd5b50610231610800565b60405161023e9190610e12565b60405180910390f35b34801561025357600080fd5b5061025c61088e565b6040516102699190610ab0565b60405180910390f35b34801561027e57600080fd5b506102876108b2565b6040516102949190610ef2565b60405180910390f35b60008060009054906101000a900473ffffffffffffffffffffffffffffffffffffffff1673ffffffffffffffffffffffffffffffffffffffff163373ffffffffffffffffffffffffffffffffffffffff161461032e576040517f08c379a000000000000000000000000000000000000000000000000000000000815260040161032590610fac565b60405180910390fd5b47905090565b6004818154811061034457600080fd5b906000526020600020016000915054906101000a900473ffffffffffffffffffffffffffffffffffffffff1681565b6000600260003373ffffffffffffffffffffffffffffffffffffffff1673ffffffffffffffffffffffffffffffffffffffff16815260200190815260200160002054905090565b60035481565b60026020528060005260406000206000915090505481565b60008054906101000a900473ffffffffffffffffffffffffffffffffffffffff1673ffffffffffffffffffffffffffffffffffffffff163373ffffffffffffffffffffffffffffffffffffffff1614610466576040517f08c379a000000000000000000000000000000000000000000000000000000000815260040161045d9061103e565b60405180910390fd5b600047905060008054906101000a900473ffffffffffffffffffffffffffffffffffffffff1673ffffffffffffffffffffffffffffffffffffffff166108fc829081150290604051600060405180830381858888f193505050501580156104d1573d6000803e3d6000fd5b5050565b600180546104e29061108d565b80601f016020809104026020016040519081016040528092919081815260200182805461050e9061108d565b801561055b5780601f106105305761010080835404028352916020019161055b565b820191906000526020600020905b81548152906001019060200180831161053e57829003601f168201915b505050505081565b60008054906101000a900473ffffffffffffffffffffffffffffffffffffffff1673ffffffffffffffffffffffffffffffffffffffff163373ffffffffffffffffffffffffffffffffffffffff16146105f1576040517f08c379a00000000000000000000000000000000000000000000000000000000081526004016105e890611130565b60405180910390fd5b806001908161060091906112fc565b5050565b60003403610647576040517f08c379a000000000000000000000000000000000000000000000000000000000815260040161063e9061141a565b60405180910390fd5b34600260003373ffffffffffffffffffffffffffffffffffffffff1673ffffffffffffffffffffffffffffffffffffffff16815260200190815260200160002060008282546106969190611469565b9250508190555060006001905060005b600480549050811015610740573373ffffffffffffffffffffffffffffffffffffffff16600482815481106106de576106dd61149d565b5b9060005260206000200160009054906101000a900473ffffffffffffffffffffffffffffffffffffffff1673ffffffffffffffffffffffffffffffffffffffff160361072d5760009150610740565b8080610738906114cc565b9150506106a6565b5080156107ab576004339080600181540180825580915050600190039060005260206000200160009091909190916101000a81548173ffffffffffffffffffffffffffffffffffffffff021916908373ffffffffffffffffffffffffffffffffffffffff1602179055505b34600360008282546107bd9190611469565b925050819055507fa31e29bfb07d58907af253efea445fa8704e251a3997dc17597655a61ab769ca6003546040516107f591906109e7565b60405180910390a150565b6060600480548060200260200160405190810160405280929190818152602001828054801561088457602002820191906000526020600020905b8160009054906101000a900473ffffffffffffffffffffffffffffffffffffffff1673ffffffffffffffffffffffffffffffffffffffff168152602001906001019080831161083a575b5050505050905090565b60008054906101000a900473ffffffffffffffffffffffffffffffffffffffff1681565b6060600060048054905067ffffffffffffffff8111156108d5576108d4610be0565b5b6040519080825280602002602001820160405280156109035781602001602082028036833780820191505090505b50905060005b6004805490508110156109c657600260006004838154811061092e5761092d61149d565b5b9060005260206000200160009054906101000a900473ffffffffffffffffffffffffffffffffffffffff1673ffffffffffffffffffffffffffffffffffffffff1673ffffffffffffffffffffffffffffffffffffffff168152602001908152602001600020548282815181106109a7576109a661149d565b5b60200260200101818152505080806109be906114cc565b915050610909565b508091505090565b6000819050919050565b6109e1816109ce565b82525050565b60006020820190506109fc60008301846109d8565b92915050565b6000604051905090565b600080fd5b600080fd5b610a1f816109ce565b8114610a2a57600080fd5b50565b600081359050610a3c81610a16565b92915050565b600060208284031215610a5857610a57610a0c565b5b6000610a6684828501610a2d565b91505092915050565b600073ffffffffffffffffffffffffffffffffffffffff82169050919050565b6000610a9a82610a6f565b9050919050565b610aaa81610a8f565b82525050565b6000602082019050610ac56000830184610aa1565b92915050565b610ad481610a8f565b8114610adf57600080fd5b50565b600081359050610af181610acb565b92915050565b600060208284031215610b0d57610b0c610a0c565b5b6000610b1b84828501610ae2565b91505092915050565b600081519050919050565b600082825260208201905092915050565b60005b83811015610b5e578082015181840152602081019050610b43565b60008484015250505050565b6000601f19601f8301169050919050565b6000610b8682610b24565b610b908185610b2f565b9350610ba0818560208601610b40565b610ba981610b6a565b840191505092915050565b60006020820190508181036000830152610bce8184610b7b565b905092915050565b600080fd5b600080fd5b7f4e487b7100000000000000000000000000000000000000000000000000000000600052604160045260246000fd5b610c1882610b6a565b810181811067ffffffffffffffff82111715610c3757610c36610be0565b5b80604052505050565b6000610c4a610a02565b9050610c568282610c0f565b919050565b600067ffffffffffffffff821115610c7657610c75610be0565b5b610c7f82610b6a565b9050602081019050919050565b82818337600083830152505050565b6000610cae610ca984610c5b565b610c40565b905082815260208101848484011115610cca57610cc9610bdb565b5b610cd5848285610c8c565b509392505050565b600082601f830112610cf257610cf1610bd6565b5b8135610d02848260208601610c9b565b91505092915050565b600060208284031215610d2157610d20610a0c565b5b600082013567ffffffffffffffff811115610d3f57610d3e610a11565b5b610d4b84828501610cdd565b91505092915050565b600081519050919050565b600082825260208201905092915050565b6000819050602082019050919050565b610d8981610a8f565b82525050565b6000610d9b8383610d80565b60208301905092915050565b6000602082019050919050565b6000610dbf82610d54565b610dc98185610d5f565b9350610dd483610d70565b8060005b83811015610e05578151610dec8882610d8f565b9750610df783610da7565b925050600181019050610dd8565b5085935050505092915050565b60006020820190508181036000830152610e2c8184610db4565b905092915050565b600081519050919050565b600082825260208201905092915050565b6000819050602082019050919050565b610e69816109ce565b82525050565b6000610e7b8383610e60565b60208301905092915050565b6000602082019050919050565b6000610e9f82610e34565b610ea98185610e3f565b9350610eb483610e50565b8060005b83811015610ee5578151610ecc8882610e6f565b9750610ed783610e87565b925050600181019050610eb8565b5085935050505092915050565b60006020820190508181036000830152610f0c8184610e94565b905092915050565b7f796f75206d75737420626520746865206f776e6572206f662074686520646f6e60008201527f6174696f6e2073797374656d20746f2073656520616c6c207468652062616c6160208201527f6e6365732e000000000000000000000000000000000000000000000000000000604082015250565b6000610f96604583610b2f565b9150610fa182610f14565b606082019050919050565b60006020820190508181036000830152610fc581610f89565b9050919050565b7f4f6e6c79207468652073797374656d206f776e65722063616e2077697468647260008201527f617720616c6c2066756e64730000000000000000000000000000000000000000602082015250565b6000611028602c83610b2f565b915061103382610fcc565b604082019050919050565b600060208201905081810360008301526110578161101b565b9050919050565b7f4e487b7100000000000000000000000000000000000000000000000000000000600052602260045260246000fd5b600060028204905060018216806110a557607f821691505b6020821081036110b8576110b761105e565b5b50919050565b7f796f75206d75737420626520746865206f776e657220746f206368616e67652060008201527f746865206e616d65206f662074686520646f6e6174696f6e2073797374656d00602082015250565b600061111a603f83610b2f565b9150611125826110be565b604082019050919050565b600060208201905081810360008301526111498161110d565b9050919050565b60008190508160005260206000209050919050565b60006020601f8301049050919050565b600082821b905092915050565b6000600883026111b27fffffffffffffffffffffffffffffffffffffffffffffffffffffffffffffffff82611175565b6111bc8683611175565b95508019841693508086168417925050509392505050565b6000819050919050565b60006111f96111f46111ef846109ce565b6111d4565b6109ce565b9050919050565b6000819050919050565b611213836111de565b61122761121f82611200565b848454611182565b825550505050565b600090565b61123c61122f565b61124781848461120a565b505050565b5b8181101561126b57611260600082611234565b60018101905061124d565b5050565b601f8211156112b05761128181611150565b61128a84611165565b81016020851015611299578190505b6112ad6112a585611165565b83018261124c565b50505b505050565b600082821c905092915050565b60006112d3600019846008026112b5565b1980831691505092915050565b60006112ec83836112c2565b9150826002028217905092915050565b61130582610b24565b67ffffffffffffffff81111561131e5761131d610be0565b5b611328825461108d565b61133382828561126f565b600060209050601f8311600181146113665760008415611354578287015190505b61135e85826112e0565b8655506113c6565b601f19841661137486611150565b60005b8281101561139c57848901518255600182019150602085019450602081019050611377565b868310156113b957848901516113b5601f8916826112c2565b8355505b6001600288020188555050505b505050505050565b7f596f7572206465706f7369742063616e6e6f7420626520300000000000000000600082015250565b6000611404601883610b2f565b915061140f826113ce565b602082019050919050565b60006020820190508181036000830152611433816113f7565b9050919050565b7f4e487b7100000000000000000000000000000000000000000000000000000000600052601160045260246000fd5b6000611474826109ce565b915061147f836109ce565b92508282019050808211156114975761149661143a565b5b92915050565b7f4e487b7100000000000000000000000000000000000000000000000000000000600052603260045260246000fd5b60006114d7826109ce565b91507fffffffffffffffffffffffffffffffffffffffffffffffffffffffffffffffff82036115095761150861143a565b5b60018201905091905056fea2646970667358221220f25877547f5cc8ac0f9875957dc42a5ed028951002d7a693b952640cf710fddf64736f6c63430008130033",
      "opcodes": "PUSH1 0x80 PUSH1 0x40 MSTORE CALLVALUE DUP1 ISZERO PUSH2 0x10 JUMPI PUSH1 0x0 DUP1 REVERT JUMPDEST POP CALLER PUSH1 0x0 DUP1 PUSH2 0x100 EXP DUP2 SLOAD DUP2 PUSH20 0xFFFFFFFFFFFFFFFFFFFFFFFFFFFFFFFFFFFFFFFF MUL NOT AND SWAP1 DUP4 PUSH20 0xFFFFFFFFFFFFFFFFFFFFFFFFFFFFFFFFFFFFFFFF AND MUL OR SWAP1 SSTORE POP PUSH2 0x154A DUP1 PUSH2 0x60 PUSH1 0x0 CODECOPY PUSH1 0x0 RETURN INVALID PUSH1 0x80 PUSH1 0x40 MSTORE PUSH1 0x4 CALLDATASIZE LT PUSH2 0xA7 JUMPI PUSH1 0x0 CALLDATALOAD PUSH1 0xE0 SHR DUP1 PUSH4 0x9FA52CAB GT PUSH2 0x64 JUMPI DUP1 PUSH4 0x9FA52CAB EQ PUSH2 0x1BE JUMPI DUP1 PUSH4 0xA44B7F56 EQ PUSH2 0x1E9 JUMPI DUP1 PUSH4 0xA8FA5993 EQ PUSH2 0x212 JUMPI DUP1 PUSH4 0xC0675B29 EQ PUSH2 0x21C JUMPI DUP1 PUSH4 0xFAB98117 EQ PUSH2 0x247 JUMPI DUP1 PUSH4 0xFB949A70 EQ PUSH2 0x272 JUMPI PUSH2 0xA7 JUMP JUMPDEST DUP1 PUSH4 0x21F4AE14 EQ PUSH2 0xAC JUMPI DUP1 PUSH4 0x2B2AEE5D EQ PUSH2 0xD7 JUMPI DUP1 PUSH4 0x30ECFC31 EQ PUSH2 0x114 JUMPI DUP1 PUSH4 0x75DF596A EQ PUSH2 0x13F JUMPI DUP1 PUSH4 0x7B8C8DE1 EQ PUSH2 0x16A JUMPI DUP1 PUSH4 0x80710F39 EQ PUSH2 0x1A7 JUMPI JUMPDEST PUSH1 0x0 DUP1 REVERT JUMPDEST CALLVALUE DUP1 ISZERO PUSH2 0xB8 JUMPI PUSH1 0x0 DUP1 REVERT JUMPDEST POP PUSH2 0xC1 PUSH2 0x29D JUMP JUMPDEST PUSH1 0x40 MLOAD PUSH2 0xCE SWAP2 SWAP1 PUSH2 0x9E7 JUMP JUMPDEST PUSH1 0x40 MLOAD DUP1 SWAP2 SUB SWAP1 RETURN JUMPDEST CALLVALUE DUP1 ISZERO PUSH2 0xE3 JUMPI PUSH1 0x0 DUP1 REVERT JUMPDEST POP PUSH2 0xFE PUSH1 0x4 DUP1 CALLDATASIZE SUB DUP2 ADD SWAP1 PUSH2 0xF9 SWAP2 SWAP1 PUSH2 0xA42 JUMP JUMPDEST PUSH2 0x334 JUMP JUMPDEST PUSH1 0x40 MLOAD PUSH2 0x10B SWAP2 SWAP1 PUSH2 0xAB0 JUMP JUMPDEST PUSH1 0x40 MLOAD DUP1 SWAP2 SUB SWAP1 RETURN JUMPDEST CALLVALUE DUP1 ISZERO PUSH2 0x120 JUMPI PUSH1 0x0 DUP1 REVERT JUMPDEST POP PUSH2 0x129 PUSH2 0x373 JUMP JUMPDEST PUSH1 0x40 MLOAD PUSH2 0x136 SWAP2 SWAP1 PUSH2 0x9E7 JUMP JUMPDEST PUSH1 0x40 MLOAD DUP1 SWAP2 SUB SWAP1 RETURN JUMPDEST CALLVALUE DUP1 ISZERO PUSH2 0x14B JUMPI PUSH1 0x0 DUP1 REVERT JUMPDEST POP PUSH2 0x154 PUSH2 0x3BA JUMP JUMPDEST PUSH1 0x40 MLOAD PUSH2 0x161 SWAP2 SWAP1 PUSH2 0x9E7 JUMP JUMPDEST PUSH1 0x40 MLOAD DUP1 SWAP2 SUB SWAP1 RETURN JUMPDEST CALLVALUE DUP1 ISZERO PUSH2 0x176 JUMPI PUSH1 0x0 DUP1 REVERT JUMPDEST POP PUSH2 0x191 PUSH1 0x4 DUP1 CALLDATASIZE SUB DUP2 ADD SWAP1 PUSH2 0x18C SWAP2 SWAP1 PUSH2 0xAF7 JUMP JUMPDEST PUSH2 0x3C0 JUMP JUMPDEST PUSH1 0x40 MLOAD PUSH2 0x19E SWAP2 SWAP1 PUSH2 0x9E7 JUMP JUMPDEST PUSH1 0x40 MLOAD DUP1 SWAP2 SUB SWAP1 RETURN JUMPDEST CALLVALUE DUP1 ISZERO PUSH2 0x1B3 JUMPI PUSH1 0x0 DUP1 REVERT JUMPDEST POP PUSH2 0x1BC PUSH2 0x3D8 JUMP JUMPDEST STOP JUMPDEST CALLVALUE DUP1 ISZERO PUSH2 0x1CA JUMPI PUSH1 0x0 DUP1 REVERT JUMPDEST POP PUSH2 0x1D3 PUSH2 0x4D5 JUMP JUMPDEST PUSH1 0x40 MLOAD PUSH2 0x1E0 SWAP2 SWAP1 PUSH2 0xBB4 JUMP JUMPDEST PUSH1 0x40 MLOAD DUP1 SWAP2 SUB SWAP1 RETURN JUMPDEST CALLVALUE DUP1 ISZERO PUSH2 0x1F5 JUMPI PUSH1 0x0 DUP1 REVERT JUMPDEST POP PUSH2 0x210 PUSH1 0x4 DUP1 CALLDATASIZE SUB DUP2 ADD SWAP1 PUSH2 0x20B SWAP2 SWAP1 PUSH2 0xD0B JUMP JUMPDEST PUSH2 0x563 JUMP JUMPDEST STOP JUMPDEST PUSH2 0x21A PUSH2 0x604 JUMP JUMPDEST STOP JUMPDEST CALLVALUE DUP1 ISZERO PUSH2 0x228 JUMPI PUSH1 0x0 DUP1 REVERT JUMPDEST POP PUSH2 0x231 PUSH2 0x800 JUMP JUMPDEST PUSH1 0x40 MLOAD PUSH2 0x23E SWAP2 SWAP1 PUSH2 0xE12 JUMP JUMPDEST PUSH1 0x40 MLOAD DUP1 SWAP2 SUB SWAP1 RETURN JUMPDEST CALLVALUE DUP1 ISZERO PUSH2 0x253 JUMPI PUSH1 0x0 DUP1 REVERT JUMPDEST POP PUSH2 0x25C PUSH2 0x88E JUMP JUMPDEST PUSH1 0x40 MLOAD PUSH2 0x269 SWAP2 SWAP1 PUSH2 0xAB0 JUMP JUMPDEST PUSH1 0x40 MLOAD DUP1 SWAP2 SUB SWAP1 RETURN JUMPDEST CALLVALUE DUP1 ISZERO PUSH2 0x27E JUMPI PUSH1 0x0 DUP1 REVERT JUMPDEST POP PUSH2 0x287 PUSH2 0x8B2 JUMP JUMPDEST PUSH1 0x40 MLOAD PUSH2 0x294 SWAP2 SWAP1 PUSH2 0xEF2 JUMP JUMPDEST PUSH1 0x40 MLOAD DUP1 SWAP2 SUB SWAP1 RETURN JUMPDEST PUSH1 0x0 DUP1 PUSH1 0x0 SWAP1 SLOAD SWAP1 PUSH2 0x100 EXP SWAP1 DIV PUSH20 0xFFFFFFFFFFFFFFFFFFFFFFFFFFFFFFFFFFFFFFFF AND PUSH20 0xFFFFFFFFFFFFFFFFFFFFFFFFFFFFFFFFFFFFFFFF AND CALLER PUSH20 0xFFFFFFFFFFFFFFFFFFFFFFFFFFFFFFFFFFFFFFFF AND EQ PUSH2 0x32E JUMPI PUSH1 0x40 MLOAD PUSH32 0x8C379A000000000000000000000000000000000000000000000000000000000 DUP2 MSTORE PUSH1 0x4 ADD PUSH2 0x325 SWAP1 PUSH2 0xFAC JUMP JUMPDEST PUSH1 0x40 MLOAD DUP1 SWAP2 SUB SWAP1 REVERT JUMPDEST SELFBALANCE SWAP1 POP SWAP1 JUMP JUMPDEST PUSH1 0x4 DUP2 DUP2 SLOAD DUP2 LT PUSH2 0x344 JUMPI PUSH1 0x0 DUP1 REVERT JUMPDEST SWAP1 PUSH1 0x0 MSTORE PUSH1 0x20 PUSH1 0x0 KECCAK256 ADD PUSH1 0x0 SWAP2 POP SLOAD SWAP1 PUSH2 0x100 EXP SWAP1 DIV PUSH20 0xFFFFFFFFFFFFFFFFFFFFFFFFFFFFFFFFFFFFFFFF AND DUP2 JUMP JUMPDEST PUSH1 0x0 PUSH1 0x2 PUSH1 0x0 CALLER PUSH20 0xFFFFFFFFFFFFFFFFFFFFFFFFFFFFFFFFFFFFFFFF AND PUSH20 0xFFFFFFFFFFFFFFFFFFFFFFFFFFFFFFFFFFFFFFFF AND DUP2 MSTORE PUSH1 0x20 ADD SWAP1 DUP2 MSTORE PUSH1 0x20 ADD PUSH1 0x0 KECCAK256 SLOAD SWAP1 POP SWAP1 JUMP JUMPDEST PUSH1 0x3 SLOAD DUP2 JUMP JUMPDEST PUSH1 0x2 PUSH1 0x20 MSTORE DUP1 PUSH1 0x0 MSTORE PUSH1 0x40 PUSH1 0x0 KECCAK256 PUSH1 0x0 SWAP2 POP SWAP1 POP SLOAD DUP2 JUMP JUMPDEST PUSH1 0x0 DUP1 SLOAD SWAP1 PUSH2 0x100 EXP SWAP1 DIV PUSH20 0xFFFFFFFFFFFFFFFFFFFFFFFFFFFFFFFFFFFFFFFF AND PUSH20 0xFFFFFFFFFFFFFFFFFFFFFFFFFFFFFFFFFFFFFFFF AND CALLER PUSH20 0xFFFFFFFFFFFFFFFFFFFFFFFFFFFFFFFFFFFFFFFF AND EQ PUSH2 0x466 JUMPI PUSH1 0x40 MLOAD PUSH32 0x8C379A000000000000000000000000000000000000000000000000000000000 DUP2 MSTORE PUSH1 0x4 ADD PUSH2 0x45D SWAP1 PUSH2 0x103E JUMP JUMPDEST PUSH1 0x40 MLOAD DUP1 SWAP2 SUB SWAP1 REVERT JUMPDEST PUSH1 0x0 SELFBALANCE SWAP1 POP PUSH1 0x0 DUP1 SLOAD SWAP1 PUSH2 0x100 EXP SWAP1 DIV PUSH20 0xFFFFFFFFFFFFFFFFFFFFFFFFFFFFFFFFFFFFFFFF AND PUSH20 0xFFFFFFFFFFFFFFFFFFFFFFFFFFFFFFFFFFFFFFFF AND PUSH2 0x8FC DUP3 SWAP1 DUP2 ISZERO MUL SWAP1 PUSH1 0x40 MLOAD PUSH1 0x0 PUSH1 0x40 MLOAD DUP1 DUP4 SUB DUP2 DUP6 DUP9 DUP9 CALL SWAP4 POP POP POP POP ISZERO DUP1 ISZERO PUSH2 0x4D1 JUMPI RETURNDATASIZE PUSH1 0x0 DUP1 RETURNDATACOPY RETURNDATASIZE PUSH1 0x0 REVERT JUMPDEST POP POP JUMP JUMPDEST PUSH1 0x1 DUP1 SLOAD PUSH2 0x4E2 SWAP1 PUSH2 0x108D JUMP JUMPDEST DUP1 PUSH1 0x1F ADD PUSH1 0x20 DUP1 SWAP2 DIV MUL PUSH1 0x20 ADD PUSH1 0x40 MLOAD SWAP1 DUP2 ADD PUSH1 0x40 MSTORE DUP1 SWAP3 SWAP2 SWAP1 DUP2 DUP2 MSTORE PUSH1 0x20 ADD DUP3 DUP1 SLOAD PUSH2 0x50E SWAP1 PUSH2 0x108D JUMP JUMPDEST DUP1 ISZERO PUSH2 0x55B JUMPI DUP1 PUSH1 0x1F LT PUSH2 0x530 JUMPI PUSH2 0x100 DUP1 DUP4 SLOAD DIV MUL DUP4 MSTORE SWAP2 PUSH1 0x20 ADD SWAP2 PUSH2 0x55B JUMP JUMPDEST DUP3 ADD SWAP2 SWAP1 PUSH1 0x0 MSTORE PUSH1 0x20 PUSH1 0x0 KECCAK256 SWAP1 JUMPDEST DUP2 SLOAD DUP2 MSTORE SWAP1 PUSH1 0x1 ADD SWAP1 PUSH1 0x20 ADD DUP1 DUP4 GT PUSH2 0x53E JUMPI DUP3 SWAP1 SUB PUSH1 0x1F AND DUP3 ADD SWAP2 JUMPDEST POP POP POP POP POP DUP2 JUMP JUMPDEST PUSH1 0x0 DUP1 SLOAD SWAP1 PUSH2 0x100 EXP SWAP1 DIV PUSH20 0xFFFFFFFFFFFFFFFFFFFFFFFFFFFFFFFFFFFFFFFF AND PUSH20 0xFFFFFFFFFFFFFFFFFFFFFFFFFFFFFFFFFFFFFFFF AND CALLER PUSH20 0xFFFFFFFFFFFFFFFFFFFFFFFFFFFFFFFFFFFFFFFF AND EQ PUSH2 0x5F1 JUMPI PUSH1 0x40 MLOAD PUSH32 0x8C379A000000000000000000000000000000000000000000000000000000000 DUP2 MSTORE PUSH1 0x4 ADD PUSH2 0x5E8 SWAP1 PUSH2 0x1130 JUMP JUMPDEST PUSH1 0x40 MLOAD DUP1 SWAP2 SUB SWAP1 REVERT JUMPDEST DUP1 PUSH1 0x1 SWAP1 DUP2 PUSH2 0x600 SWAP2 SWAP1 PUSH2 0x12FC JUMP JUMPDEST POP POP JUMP JUMPDEST PUSH1 0x0 CALLVALUE SUB PUSH2 0x647 JUMPI PUSH1 0x40 MLOAD PUSH32 0x8C379A000000000000000000000000000000000000000000000000000000000 DUP2 MSTORE PUSH1 0x4 ADD PUSH2 0x63E SWAP1 PUSH2 0x141A JUMP JUMPDEST PUSH1 0x40 MLOAD DUP1 SWAP2 SUB SWAP1 REVERT JUMPDEST CALLVALUE PUSH1 0x2 PUSH1 0x0 CALLER PUSH20 0xFFFFFFFFFFFFFFFFFFFFFFFFFFFFFFFFFFFFFFFF AND PUSH20 0xFFFFFFFFFFFFFFFFFFFFFFFFFFFFFFFFFFFFFFFF AND DUP2 MSTORE PUSH1 0x20 ADD SWAP1 DUP2 MSTORE PUSH1 0x20 ADD PUSH1 0x0 KECCAK256 PUSH1 0x0 DUP3 DUP3 SLOAD PUSH2 0x696 SWAP2 SWAP1 PUSH2 0x1469 JUMP JUMPDEST SWAP3 POP POP DUP2 SWAP1 SSTORE POP PUSH1 0x0 PUSH1 0x1 SWAP1 POP PUSH1 0x0 JUMPDEST PUSH1 0x4 DUP1 SLOAD SWAP1 POP DUP2 LT ISZERO PUSH2 0x740 JUMPI CALLER PUSH20 0xFFFFFFFFFFFFFFFFFFFFFFFFFFFFFFFFFFFFFFFF AND PUSH1 0x4 DUP3 DUP2 SLOAD DUP2 LT PUSH2 0x6DE JUMPI PUSH2 0x6DD PUSH2 0x149D JUMP JUMPDEST JUMPDEST SWAP1 PUSH1 0x0 MSTORE PUSH1 0x20 PUSH1 0x0 KECCAK256 ADD PUSH1 0x0 SWAP1 SLOAD SWAP1 PUSH2 0x100 EXP SWAP1 DIV PUSH20 0xFFFFFFFFFFFFFFFFFFFFFFFFFFFFFFFFFFFFFFFF AND PUSH20 0xFFFFFFFFFFFFFFFFFFFFFFFFFFFFFFFFFFFFFFFF AND SUB PUSH2 0x72D JUMPI PUSH1 0x0 SWAP2 POP PUSH2 0x740 JUMP JUMPDEST DUP1 DUP1 PUSH2 0x738 SWAP1 PUSH2 0x14CC JUMP JUMPDEST SWAP2 POP POP PUSH2 0x6A6 JUMP JUMPDEST POP DUP1 ISZERO PUSH2 0x7AB JUMPI PUSH1 0x4 CALLER SWAP1 DUP1 PUSH1 0x1 DUP2 SLOAD ADD DUP1 DUP3 SSTORE DUP1 SWAP2 POP POP PUSH1 0x1 SWAP1 SUB SWAP1 PUSH1 0x0 MSTORE PUSH1 0x20 PUSH1 0x0 KECCAK256 ADD PUSH1 0x0 SWAP1 SWAP2 SWAP1 SWAP2 SWAP1 SWAP2 PUSH2 0x100 EXP DUP2 SLOAD DUP2 PUSH20 0xFFFFFFFFFFFFFFFFFFFFFFFFFFFFFFFFFFFFFFFF MUL NOT AND SWAP1 DUP4 PUSH20 0xFFFFFFFFFFFFFFFFFFFFFFFFFFFFFFFFFFFFFFFF AND MUL OR SWAP1 SSTORE POP JUMPDEST CALLVALUE PUSH1 0x3 PUSH1 0x0 DUP3 DUP3 SLOAD PUSH2 0x7BD SWAP2 SWAP1 PUSH2 0x1469 JUMP JUMPDEST SWAP3 POP POP DUP2 SWAP1 SSTORE POP PUSH32 0xA31E29BFB07D58907AF253EFEA445FA8704E251A3997DC17597655A61AB769CA PUSH1 0x3 SLOAD PUSH1 0x40 MLOAD PUSH2 0x7F5 SWAP2 SWAP1 PUSH2 0x9E7 JUMP JUMPDEST PUSH1 0x40 MLOAD DUP1 SWAP2 SUB SWAP1 LOG1 POP JUMP JUMPDEST PUSH1 0x60 PUSH1 0x4 DUP1 SLOAD DUP1 PUSH1 0x20 MUL PUSH1 0x20 ADD PUSH1 0x40 MLOAD SWAP1 DUP2 ADD PUSH1 0x40 MSTORE DUP1 SWAP3 SWAP2 SWAP1 DUP2 DUP2 MSTORE PUSH1 0x20 ADD DUP3 DUP1 SLOAD DUP1 ISZERO PUSH2 0x884 JUMPI PUSH1 0x20 MUL DUP3 ADD SWAP2 SWAP1 PUSH1 0x0 MSTORE PUSH1 0x20 PUSH1 0x0 KECCAK256 SWAP1 JUMPDEST DUP2 PUSH1 0x0 SWAP1 SLOAD SWAP1 PUSH2 0x100 EXP SWAP1 DIV PUSH20 0xFFFFFFFFFFFFFFFFFFFFFFFFFFFFFFFFFFFFFFFF AND PUSH20 0xFFFFFFFFFFFFFFFFFFFFFFFFFFFFFFFFFFFFFFFF AND DUP2 MSTORE PUSH1 0x20 ADD SWAP1 PUSH1 0x1 ADD SWAP1 DUP1 DUP4 GT PUSH2 0x83A JUMPI JUMPDEST POP POP POP POP POP SWAP1 POP SWAP1 JUMP JUMPDEST PUSH1 0x0 DUP1 SLOAD SWAP1 PUSH2 0x100 EXP SWAP1 DIV PUSH20 0xFFFFFFFFFFFFFFFFFFFFFFFFFFFFFFFFFFFFFFFF AND DUP2 JUMP JUMPDEST PUSH1 0x60 PUSH1 0x0 PUSH1 0x4 DUP1 SLOAD SWAP1 POP PUSH8 0xFFFFFFFFFFFFFFFF DUP2 GT ISZERO PUSH2 0x8D5 JUMPI PUSH2 0x8D4 PUSH2 0xBE0 JUMP JUMPDEST JUMPDEST PUSH1 0x40 MLOAD SWAP1 DUP1 DUP3 MSTORE DUP1 PUSH1 0x20 MUL PUSH1 0x20 ADD DUP3 ADD PUSH1 0x40 MSTORE DUP1 ISZERO PUSH2 0x903 JUMPI DUP2 PUSH1 0x20 ADD PUSH1 0x20 DUP3 MUL DUP1 CALLDATASIZE DUP4 CALLDATACOPY DUP1 DUP3 ADD SWAP2 POP POP SWAP1 POP JUMPDEST POP SWAP1 POP PUSH1 0x0 JUMPDEST PUSH1 0x4 DUP1 SLOAD SWAP1 POP DUP2 LT ISZERO PUSH2 0x9C6 JUMPI PUSH1 0x2 PUSH1 0x0 PUSH1 0x4 DUP4 DUP2 SLOAD DUP2 LT PUSH2 0x92E JUMPI PUSH2 0x92D PUSH2 0x149D JUMP JUMPDEST JUMPDEST SWAP1 PUSH1 0x0 MSTORE PUSH1 0x20 PUSH1 0x0 KECCAK256 ADD PUSH1 0x0 SWAP1 SLOAD SWAP1 PUSH2 0x100 EXP SWAP1 DIV PUSH20 0xFFFFFFFFFFFFFFFFFFFFFFFFFFFFFFFFFFFFFFFF AND PUSH20 0xFFFFFFFFFFFFFFFFFFFFFFFFFFFFFFFFFFFFFFFF AND PUSH20 0xFFFFFFFFFFFFFFFFFFFFFFFFFFFFFFFFFFFFFFFF AND DUP2 MSTORE PUSH1 0x20 ADD SWAP1 DUP2 MSTORE PUSH1 0x20 ADD PUSH1 0x0 KECCAK256 SLOAD DUP3 DUP3 DUP2 MLOAD DUP2 LT PUSH2 0x9A7 JUMPI PUSH2 0x9A6 PUSH2 0x149D JUMP JUMPDEST JUMPDEST PUSH1 0x20 MUL PUSH1 0x20 ADD ADD DUP2 DUP2 MSTORE POP POP DUP1 DUP1 PUSH2 0x9BE SWAP1 PUSH2 0x14CC JUMP JUMPDEST SWAP2 POP POP PUSH2 0x909 JUMP JUMPDEST POP DUP1 SWAP2 POP POP SWAP1 JUMP JUMPDEST PUSH1 0x0 DUP2 SWAP1 POP SWAP2 SWAP1 POP JUMP JUMPDEST PUSH2 0x9E1 DUP2 PUSH2 0x9CE JUMP JUMPDEST DUP3 MSTORE POP POP JUMP JUMPDEST PUSH1 0x0 PUSH1 0x20 DUP3 ADD SWAP1 POP PUSH2 0x9FC PUSH1 0x0 DUP4 ADD DUP5 PUSH2 0x9D8 JUMP JUMPDEST SWAP3 SWAP2 POP POP JUMP JUMPDEST PUSH1 0x0 PUSH1 0x40 MLOAD SWAP1 POP SWAP1 JUMP JUMPDEST PUSH1 0x0 DUP1 REVERT JUMPDEST PUSH1 0x0 DUP1 REVERT JUMPDEST PUSH2 0xA1F DUP2 PUSH2 0x9CE JUMP JUMPDEST DUP2 EQ PUSH2 0xA2A JUMPI PUSH1 0x0 DUP1 REVERT JUMPDEST POP JUMP JUMPDEST PUSH1 0x0 DUP2 CALLDATALOAD SWAP1 POP PUSH2 0xA3C DUP2 PUSH2 0xA16 JUMP JUMPDEST SWAP3 SWAP2 POP POP JUMP JUMPDEST PUSH1 0x0 PUSH1 0x20 DUP3 DUP5 SUB SLT ISZERO PUSH2 0xA58 JUMPI PUSH2 0xA57 PUSH2 0xA0C JUMP JUMPDEST JUMPDEST PUSH1 0x0 PUSH2 0xA66 DUP5 DUP3 DUP6 ADD PUSH2 0xA2D JUMP JUMPDEST SWAP2 POP POP SWAP3 SWAP2 POP POP JUMP JUMPDEST PUSH1 0x0 PUSH20 0xFFFFFFFFFFFFFFFFFFFFFFFFFFFFFFFFFFFFFFFF DUP3 AND SWAP1 POP SWAP2 SWAP1 POP JUMP JUMPDEST PUSH1 0x0 PUSH2 0xA9A DUP3 PUSH2 0xA6F JUMP JUMPDEST SWAP1 POP SWAP2 SWAP1 POP JUMP JUMPDEST PUSH2 0xAAA DUP2 PUSH2 0xA8F JUMP JUMPDEST DUP3 MSTORE POP POP JUMP JUMPDEST PUSH1 0x0 PUSH1 0x20 DUP3 ADD SWAP1 POP PUSH2 0xAC5 PUSH1 0x0 DUP4 ADD DUP5 PUSH2 0xAA1 JUMP JUMPDEST SWAP3 SWAP2 POP POP JUMP JUMPDEST PUSH2 0xAD4 DUP2 PUSH2 0xA8F JUMP JUMPDEST DUP2 EQ PUSH2 0xADF JUMPI PUSH1 0x0 DUP1 REVERT JUMPDEST POP JUMP JUMPDEST PUSH1 0x0 DUP2 CALLDATALOAD SWAP1 POP PUSH2 0xAF1 DUP2 PUSH2 0xACB JUMP JUMPDEST SWAP3 SWAP2 POP POP JUMP JUMPDEST PUSH1 0x0 PUSH1 0x20 DUP3 DUP5 SUB SLT ISZERO PUSH2 0xB0D JUMPI PUSH2 0xB0C PUSH2 0xA0C JUMP JUMPDEST JUMPDEST PUSH1 0x0 PUSH2 0xB1B DUP5 DUP3 DUP6 ADD PUSH2 0xAE2 JUMP JUMPDEST SWAP2 POP POP SWAP3 SWAP2 POP POP JUMP JUMPDEST PUSH1 0x0 DUP2 MLOAD SWAP1 POP SWAP2 SWAP1 POP JUMP JUMPDEST PUSH1 0x0 DUP3 DUP3 MSTORE PUSH1 0x20 DUP3 ADD SWAP1 POP SWAP3 SWAP2 POP POP JUMP JUMPDEST PUSH1 0x0 JUMPDEST DUP4 DUP2 LT ISZERO PUSH2 0xB5E JUMPI DUP1 DUP3 ADD MLOAD DUP2 DUP5 ADD MSTORE PUSH1 0x20 DUP2 ADD SWAP1 POP PUSH2 0xB43 JUMP JUMPDEST PUSH1 0x0 DUP5 DUP5 ADD MSTORE POP POP POP POP JUMP JUMPDEST PUSH1 0x0 PUSH1 0x1F NOT PUSH1 0x1F DUP4 ADD AND SWAP1 POP SWAP2 SWAP1 POP JUMP JUMPDEST PUSH1 0x0 PUSH2 0xB86 DUP3 PUSH2 0xB24 JUMP JUMPDEST PUSH2 0xB90 DUP2 DUP6 PUSH2 0xB2F JUMP JUMPDEST SWAP4 POP PUSH2 0xBA0 DUP2 DUP6 PUSH1 0x20 DUP7 ADD PUSH2 0xB40 JUMP JUMPDEST PUSH2 0xBA9 DUP2 PUSH2 0xB6A JUMP JUMPDEST DUP5 ADD SWAP2 POP POP SWAP3 SWAP2 POP POP JUMP JUMPDEST PUSH1 0x0 PUSH1 0x20 DUP3 ADD SWAP1 POP DUP2 DUP2 SUB PUSH1 0x0 DUP4 ADD MSTORE PUSH2 0xBCE DUP2 DUP5 PUSH2 0xB7B JUMP JUMPDEST SWAP1 POP SWAP3 SWAP2 POP POP JUMP JUMPDEST PUSH1 0x0 DUP1 REVERT JUMPDEST PUSH1 0x0 DUP1 REVERT JUMPDEST PUSH32 0x4E487B7100000000000000000000000000000000000000000000000000000000 PUSH1 0x0 MSTORE PUSH1 0x41 PUSH1 0x4 MSTORE PUSH1 0x24 PUSH1 0x0 REVERT JUMPDEST PUSH2 0xC18 DUP3 PUSH2 0xB6A JUMP JUMPDEST DUP2 ADD DUP2 DUP2 LT PUSH8 0xFFFFFFFFFFFFFFFF DUP3 GT OR ISZERO PUSH2 0xC37 JUMPI PUSH2 0xC36 PUSH2 0xBE0 JUMP JUMPDEST JUMPDEST DUP1 PUSH1 0x40 MSTORE POP POP POP JUMP JUMPDEST PUSH1 0x0 PUSH2 0xC4A PUSH2 0xA02 JUMP JUMPDEST SWAP1 POP PUSH2 0xC56 DUP3 DUP3 PUSH2 0xC0F JUMP JUMPDEST SWAP2 SWAP1 POP JUMP JUMPDEST PUSH1 0x0 PUSH8 0xFFFFFFFFFFFFFFFF DUP3 GT ISZERO PUSH2 0xC76 JUMPI PUSH2 0xC75 PUSH2 0xBE0 JUMP JUMPDEST JUMPDEST PUSH2 0xC7F DUP3 PUSH2 0xB6A JUMP JUMPDEST SWAP1 POP PUSH1 0x20 DUP2 ADD SWAP1 POP SWAP2 SWAP1 POP JUMP JUMPDEST DUP3 DUP2 DUP4 CALLDATACOPY PUSH1 0x0 DUP4 DUP4 ADD MSTORE POP POP POP JUMP JUMPDEST PUSH1 0x0 PUSH2 0xCAE PUSH2 0xCA9 DUP5 PUSH2 0xC5B JUMP JUMPDEST PUSH2 0xC40 JUMP JUMPDEST SWAP1 POP DUP3 DUP2 MSTORE PUSH1 0x20 DUP2 ADD DUP5 DUP5 DUP5 ADD GT ISZERO PUSH2 0xCCA JUMPI PUSH2 0xCC9 PUSH2 0xBDB JUMP JUMPDEST JUMPDEST PUSH2 0xCD5 DUP5 DUP3 DUP6 PUSH2 0xC8C JUMP JUMPDEST POP SWAP4 SWAP3 POP POP POP JUMP JUMPDEST PUSH1 0x0 DUP3 PUSH1 0x1F DUP4 ADD SLT PUSH2 0xCF2 JUMPI PUSH2 0xCF1 PUSH2 0xBD6 JUMP JUMPDEST JUMPDEST DUP2 CALLDATALOAD PUSH2 0xD02 DUP5 DUP3 PUSH1 0x20 DUP7 ADD PUSH2 0xC9B JUMP JUMPDEST SWAP2 POP POP SWAP3 SWAP2 POP POP JUMP JUMPDEST PUSH1 0x0 PUSH1 0x20 DUP3 DUP5 SUB SLT ISZERO PUSH2 0xD21 JUMPI PUSH2 0xD20 PUSH2 0xA0C JUMP JUMPDEST JUMPDEST PUSH1 0x0 DUP3 ADD CALLDATALOAD PUSH8 0xFFFFFFFFFFFFFFFF DUP2 GT ISZERO PUSH2 0xD3F JUMPI PUSH2 0xD3E PUSH2 0xA11 JUMP JUMPDEST JUMPDEST PUSH2 0xD4B DUP5 DUP3 DUP6 ADD PUSH2 0xCDD JUMP JUMPDEST SWAP2 POP POP SWAP3 SWAP2 POP POP JUMP JUMPDEST PUSH1 0x0 DUP2 MLOAD SWAP1 POP SWAP2 SWAP1 POP JUMP JUMPDEST PUSH1 0x0 DUP3 DUP3 MSTORE PUSH1 0x20 DUP3 ADD SWAP1 POP SWAP3 SWAP2 POP POP JUMP JUMPDEST PUSH1 0x0 DUP2 SWAP1 POP PUSH1 0x20 DUP3 ADD SWAP1 POP SWAP2 SWAP1 POP JUMP JUMPDEST PUSH2 0xD89 DUP2 PUSH2 0xA8F JUMP JUMPDEST DUP3 MSTORE POP POP JUMP JUMPDEST PUSH1 0x0 PUSH2 0xD9B DUP4 DUP4 PUSH2 0xD80 JUMP JUMPDEST PUSH1 0x20 DUP4 ADD SWAP1 POP SWAP3 SWAP2 POP POP JUMP JUMPDEST PUSH1 0x0 PUSH1 0x20 DUP3 ADD SWAP1 POP SWAP2 SWAP1 POP JUMP JUMPDEST PUSH1 0x0 PUSH2 0xDBF DUP3 PUSH2 0xD54 JUMP JUMPDEST PUSH2 0xDC9 DUP2 DUP6 PUSH2 0xD5F JUMP JUMPDEST SWAP4 POP PUSH2 0xDD4 DUP4 PUSH2 0xD70 JUMP JUMPDEST DUP1 PUSH1 0x0 JUMPDEST DUP4 DUP2 LT ISZERO PUSH2 0xE05 JUMPI DUP2 MLOAD PUSH2 0xDEC DUP9 DUP3 PUSH2 0xD8F JUMP JUMPDEST SWAP8 POP PUSH2 0xDF7 DUP4 PUSH2 0xDA7 JUMP JUMPDEST SWAP3 POP POP PUSH1 0x1 DUP2 ADD SWAP1 POP PUSH2 0xDD8 JUMP JUMPDEST POP DUP6 SWAP4 POP POP POP POP SWAP3 SWAP2 POP POP JUMP JUMPDEST PUSH1 0x0 PUSH1 0x20 DUP3 ADD SWAP1 POP DUP2 DUP2 SUB PUSH1 0x0 DUP4 ADD MSTORE PUSH2 0xE2C DUP2 DUP5 PUSH2 0xDB4 JUMP JUMPDEST SWAP1 POP SWAP3 SWAP2 POP POP JUMP JUMPDEST PUSH1 0x0 DUP2 MLOAD SWAP1 POP SWAP2 SWAP1 POP JUMP JUMPDEST PUSH1 0x0 DUP3 DUP3 MSTORE PUSH1 0x20 DUP3 ADD SWAP1 POP SWAP3 SWAP2 POP POP JUMP JUMPDEST PUSH1 0x0 DUP2 SWAP1 POP PUSH1 0x20 DUP3 ADD SWAP1 POP SWAP2 SWAP1 POP JUMP JUMPDEST PUSH2 0xE69 DUP2 PUSH2 0x9CE JUMP JUMPDEST DUP3 MSTORE POP POP JUMP JUMPDEST PUSH1 0x0 PUSH2 0xE7B DUP4 DUP4 PUSH2 0xE60 JUMP JUMPDEST PUSH1 0x20 DUP4 ADD SWAP1 POP SWAP3 SWAP2 POP POP JUMP JUMPDEST PUSH1 0x0 PUSH1 0x20 DUP3 ADD SWAP1 POP SWAP2 SWAP1 POP JUMP JUMPDEST PUSH1 0x0 PUSH2 0xE9F DUP3 PUSH2 0xE34 JUMP JUMPDEST PUSH2 0xEA9 DUP2 DUP6 PUSH2 0xE3F JUMP JUMPDEST SWAP4 POP PUSH2 0xEB4 DUP4 PUSH2 0xE50 JUMP JUMPDEST DUP1 PUSH1 0x0 JUMPDEST DUP4 DUP2 LT ISZERO PUSH2 0xEE5 JUMPI DUP2 MLOAD PUSH2 0xECC DUP9 DUP3 PUSH2 0xE6F JUMP JUMPDEST SWAP8 POP PUSH2 0xED7 DUP4 PUSH2 0xE87 JUMP JUMPDEST SWAP3 POP POP PUSH1 0x1 DUP2 ADD SWAP1 POP PUSH2 0xEB8 JUMP JUMPDEST POP DUP6 SWAP4 POP POP POP POP SWAP3 SWAP2 POP POP JUMP JUMPDEST PUSH1 0x0 PUSH1 0x20 DUP3 ADD SWAP1 POP DUP2 DUP2 SUB PUSH1 0x0 DUP4 ADD MSTORE PUSH2 0xF0C DUP2 DUP5 PUSH2 0xE94 JUMP JUMPDEST SWAP1 POP SWAP3 SWAP2 POP POP JUMP JUMPDEST PUSH32 0x796F75206D75737420626520746865206F776E6572206F662074686520646F6E PUSH1 0x0 DUP3 ADD MSTORE PUSH32 0x6174696F6E2073797374656D20746F2073656520616C6C207468652062616C61 PUSH1 0x20 DUP3 ADD MSTORE PUSH32 0x6E6365732E000000000000000000000000000000000000000000000000000000 PUSH1 0x40 DUP3 ADD MSTORE POP JUMP JUMPDEST PUSH1 0x0 PUSH2 0xF96 PUSH1 0x45 DUP4 PUSH2 0xB2F JUMP JUMPDEST SWAP2 POP PUSH2 0xFA1 DUP3 PUSH2 0xF14 JUMP JUMPDEST PUSH1 0x60 DUP3 ADD SWAP1 POP SWAP2 SWAP1 POP JUMP JUMPDEST PUSH1 0x0 PUSH1 0x20 DUP3 ADD SWAP1 POP DUP2 DUP2 SUB PUSH1 0x0 DUP4 ADD MSTORE PUSH2 0xFC5 DUP2 PUSH2 0xF89 JUMP JUMPDEST SWAP1 POP SWAP2 SWAP1 POP JUMP JUMPDEST PUSH32 0x4F6E6C79207468652073797374656D206F776E65722063616E20776974686472 PUSH1 0x0 DUP3 ADD MSTORE PUSH32 0x617720616C6C2066756E64730000000000000000000000000000000000000000 PUSH1 0x20 DUP3 ADD MSTORE POP JUMP JUMPDEST PUSH1 0x0 PUSH2 0x1028 PUSH1 0x2C DUP4 PUSH2 0xB2F JUMP JUMPDEST SWAP2 POP PUSH2 0x1033 DUP3 PUSH2 0xFCC JUMP JUMPDEST PUSH1 0x40 DUP3 ADD SWAP1 POP SWAP2 SWAP1 POP JUMP JUMPDEST PUSH1 0x0 PUSH1 0x20 DUP3 ADD SWAP1 POP DUP2 DUP2 SUB PUSH1 0x0 DUP4 ADD MSTORE PUSH2 0x1057 DUP2 PUSH2 0x101B JUMP JUMPDEST SWAP1 POP SWAP2 SWAP1 POP JUMP JUMPDEST PUSH32 0x4E487B7100000000000000000000000000000000000000000000000000000000 PUSH1 0x0 MSTORE PUSH1 0x22 PUSH1 0x4 MSTORE PUSH1 0x24 PUSH1 0x0 REVERT JUMPDEST PUSH1 0x0 PUSH1 0x2 DUP3 DIV SWAP1 POP PUSH1 0x1 DUP3 AND DUP1 PUSH2 0x10A5 JUMPI PUSH1 0x7F DUP3 AND SWAP2 POP JUMPDEST PUSH1 0x20 DUP3 LT DUP2 SUB PUSH2 0x10B8 JUMPI PUSH2 0x10B7 PUSH2 0x105E JUMP JUMPDEST JUMPDEST POP SWAP2 SWAP1 POP JUMP JUMPDEST PUSH32 0x796F75206D75737420626520746865206F776E657220746F206368616E676520 PUSH1 0x0 DUP3 ADD MSTORE PUSH32 0x746865206E616D65206F662074686520646F6E6174696F6E2073797374656D00 PUSH1 0x20 DUP3 ADD MSTORE POP JUMP JUMPDEST PUSH1 0x0 PUSH2 0x111A PUSH1 0x3F DUP4 PUSH2 0xB2F JUMP JUMPDEST SWAP2 POP PUSH2 0x1125 DUP3 PUSH2 0x10BE JUMP JUMPDEST PUSH1 0x40 DUP3 ADD SWAP1 POP SWAP2 SWAP1 POP JUMP JUMPDEST PUSH1 0x0 PUSH1 0x20 DUP3 ADD SWAP1 POP DUP2 DUP2 SUB PUSH1 0x0 DUP4 ADD MSTORE PUSH2 0x1149 DUP2 PUSH2 0x110D JUMP JUMPDEST SWAP1 POP SWAP2 SWAP1 POP JUMP JUMPDEST PUSH1 0x0 DUP2 SWAP1 POP DUP2 PUSH1 0x0 MSTORE PUSH1 0x20 PUSH1 0x0 KECCAK256 SWAP1 POP SWAP2 SWAP1 POP JUMP JUMPDEST PUSH1 0x0 PUSH1 0x20 PUSH1 0x1F DUP4 ADD DIV SWAP1 POP SWAP2 SWAP1 POP JUMP JUMPDEST PUSH1 0x0 DUP3 DUP3 SHL SWAP1 POP SWAP3 SWAP2 POP POP JUMP JUMPDEST PUSH1 0x0 PUSH1 0x8 DUP4 MUL PUSH2 0x11B2 PUSH32 0xFFFFFFFFFFFFFFFFFFFFFFFFFFFFFFFFFFFFFFFFFFFFFFFFFFFFFFFFFFFFFFFF DUP3 PUSH2 0x1175 JUMP JUMPDEST PUSH2 0x11BC DUP7 DUP4 PUSH2 0x1175 JUMP JUMPDEST SWAP6 POP DUP1 NOT DUP5 AND SWAP4 POP DUP1 DUP7 AND DUP5 OR SWAP3 POP POP POP SWAP4 SWAP3 POP POP POP JUMP JUMPDEST PUSH1 0x0 DUP2 SWAP1 POP SWAP2 SWAP1 POP JUMP JUMPDEST PUSH1 0x0 PUSH2 0x11F9 PUSH2 0x11F4 PUSH2 0x11EF DUP5 PUSH2 0x9CE JUMP JUMPDEST PUSH2 0x11D4 JUMP JUMPDEST PUSH2 0x9CE JUMP JUMPDEST SWAP1 POP SWAP2 SWAP1 POP JUMP JUMPDEST PUSH1 0x0 DUP2 SWAP1 POP SWAP2 SWAP1 POP JUMP JUMPDEST PUSH2 0x1213 DUP4 PUSH2 0x11DE JUMP JUMPDEST PUSH2 0x1227 PUSH2 0x121F DUP3 PUSH2 0x1200 JUMP JUMPDEST DUP5 DUP5 SLOAD PUSH2 0x1182 JUMP JUMPDEST DUP3 SSTORE POP POP POP POP JUMP JUMPDEST PUSH1 0x0 SWAP1 JUMP JUMPDEST PUSH2 0x123C PUSH2 0x122F JUMP JUMPDEST PUSH2 0x1247 DUP2 DUP5 DUP5 PUSH2 0x120A JUMP JUMPDEST POP POP POP JUMP JUMPDEST JUMPDEST DUP2 DUP2 LT ISZERO PUSH2 0x126B JUMPI PUSH2 0x1260 PUSH1 0x0 DUP3 PUSH2 0x1234 JUMP JUMPDEST PUSH1 0x1 DUP2 ADD SWAP1 POP PUSH2 0x124D JUMP JUMPDEST POP POP JUMP JUMPDEST PUSH1 0x1F DUP3 GT ISZERO PUSH2 0x12B0 JUMPI PUSH2 0x1281 DUP2 PUSH2 0x1150 JUMP JUMPDEST PUSH2 0x128A DUP5 PUSH2 0x1165 JUMP JUMPDEST DUP2 ADD PUSH1 0x20 DUP6 LT ISZERO PUSH2 0x1299 JUMPI DUP2 SWAP1 POP JUMPDEST PUSH2 0x12AD PUSH2 0x12A5 DUP6 PUSH2 0x1165 JUMP JUMPDEST DUP4 ADD DUP3 PUSH2 0x124C JUMP JUMPDEST POP POP JUMPDEST POP POP POP JUMP JUMPDEST PUSH1 0x0 DUP3 DUP3 SHR SWAP1 POP SWAP3 SWAP2 POP POP JUMP JUMPDEST PUSH1 0x0 PUSH2 0x12D3 PUSH1 0x0 NOT DUP5 PUSH1 0x8 MUL PUSH2 0x12B5 JUMP JUMPDEST NOT DUP1 DUP4 AND SWAP2 POP POP SWAP3 SWAP2 POP POP JUMP JUMPDEST PUSH1 0x0 PUSH2 0x12EC DUP4 DUP4 PUSH2 0x12C2 JUMP JUMPDEST SWAP2 POP DUP3 PUSH1 0x2 MUL DUP3 OR SWAP1 POP SWAP3 SWAP2 POP POP JUMP JUMPDEST PUSH2 0x1305 DUP3 PUSH2 0xB24 JUMP JUMPDEST PUSH8 0xFFFFFFFFFFFFFFFF DUP2 GT ISZERO PUSH2 0x131E JUMPI PUSH2 0x131D PUSH2 0xBE0 JUMP JUMPDEST JUMPDEST PUSH2 0x1328 DUP3 SLOAD PUSH2 0x108D JUMP JUMPDEST PUSH2 0x1333 DUP3 DUP3 DUP6 PUSH2 0x126F JUMP JUMPDEST PUSH1 0x0 PUSH1 0x20 SWAP1 POP PUSH1 0x1F DUP4 GT PUSH1 0x1 DUP2 EQ PUSH2 0x1366 JUMPI PUSH1 0x0 DUP5 ISZERO PUSH2 0x1354 JUMPI DUP3 DUP8 ADD MLOAD SWAP1 POP JUMPDEST PUSH2 0x135E DUP6 DUP3 PUSH2 0x12E0 JUMP JUMPDEST DUP7 SSTORE POP PUSH2 0x13C6 JUMP JUMPDEST PUSH1 0x1F NOT DUP5 AND PUSH2 0x1374 DUP7 PUSH2 0x1150 JUMP JUMPDEST PUSH1 0x0 JUMPDEST DUP3 DUP2 LT ISZERO PUSH2 0x139C JUMPI DUP5 DUP10 ADD MLOAD DUP3 SSTORE PUSH1 0x1 DUP3 ADD SWAP2 POP PUSH1 0x20 DUP6 ADD SWAP5 POP PUSH1 0x20 DUP2 ADD SWAP1 POP PUSH2 0x1377 JUMP JUMPDEST DUP7 DUP4 LT ISZERO PUSH2 0x13B9 JUMPI DUP5 DUP10 ADD MLOAD PUSH2 0x13B5 PUSH1 0x1F DUP10 AND DUP3 PUSH2 0x12C2 JUMP JUMPDEST DUP4 SSTORE POP JUMPDEST PUSH1 0x1 PUSH1 0x2 DUP9 MUL ADD DUP9 SSTORE POP POP POP JUMPDEST POP POP POP POP POP POP JUMP JUMPDEST PUSH32 0x596F7572206465706F7369742063616E6E6F7420626520300000000000000000 PUSH1 0x0 DUP3 ADD MSTORE POP JUMP JUMPDEST PUSH1 0x0 PUSH2 0x1404 PUSH1 0x18 DUP4 PUSH2 0xB2F JUMP JUMPDEST SWAP2 POP PUSH2 0x140F DUP3 PUSH2 0x13CE JUMP JUMPDEST PUSH1 0x20 DUP3 ADD SWAP1 POP SWAP2 SWAP1 POP JUMP JUMPDEST PUSH1 0x0 PUSH1 0x20 DUP3 ADD SWAP1 POP DUP2 DUP2 SUB PUSH1 0x0 DUP4 ADD MSTORE PUSH2 0x1433 DUP2 PUSH2 0x13F7 JUMP JUMPDEST SWAP1 POP SWAP2 SWAP1 POP JUMP JUMPDEST PUSH32 0x4E487B7100000000000000000000000000000000000000000000000000000000 PUSH1 0x0 MSTORE PUSH1 0x11 PUSH1 0x4 MSTORE PUSH1 0x24 PUSH1 0x0 REVERT JUMPDEST PUSH1 0x0 PUSH2 0x1474 DUP3 PUSH2 0x9CE JUMP JUMPDEST SWAP2 POP PUSH2 0x147F DUP4 PUSH2 0x9CE JUMP JUMPDEST SWAP3 POP DUP3 DUP3 ADD SWAP1 POP DUP1 DUP3 GT ISZERO PUSH2 0x1497 JUMPI PUSH2 0x1496 PUSH2 0x143A JUMP JUMPDEST JUMPDEST SWAP3 SWAP2 POP POP JUMP JUMPDEST PUSH32 0x4E487B7100000000000000000000000000000000000000000000000000000000 PUSH1 0x0 MSTORE PUSH1 0x32 PUSH1 0x4 MSTORE PUSH1 0x24 PUSH1 0x0 REVERT JUMPDEST PUSH1 0x0 PUSH2 0x14D7 DUP3 PUSH2 0x9CE JUMP JUMPDEST SWAP2 POP PUSH32 0xFFFFFFFFFFFFFFFFFFFFFFFFFFFFFFFFFFFFFFFFFFFFFFFFFFFFFFFFFFFFFFFF DUP3 SUB PUSH2 0x1509 JUMPI PUSH2 0x1508 PUSH2 0x143A JUMP JUMPDEST JUMPDEST PUSH1 0x1 DUP3 ADD SWAP1 POP SWAP2 SWAP1 POP JUMP INVALID LOG2 PUSH5 0x6970667358 0x22 SLT KECCAK256 CALLCODE PC PUSH24 0x547F5CC8AC0F9875957DC42A5ED028951002D7A693B95264 0xC 0xF7 LT REVERT 0xDF PUSH5 0x736F6C6343 STOP ADDMOD SGT STOP CALLER "
    },
    "gasEstimates": {
      "creation": {
        "codeDepositCost": "1090000",
        "executionCost": "25400",
        "totalCost": "1115400"
      },
      "external": {
        "SystemName()": "infinite",
        "SystemOwner()": "2599",
        "donateMoney()": "infinite",
        "donorAddresses(uint256)": "4979",
        "donorBalances(address)": "2903",
        "getAllDonatedAddresses()": "infinite",
        "getAllDonationAmounts()": "infinite",
        "getSystemBalance()": "2643",
        "getdonorBalances()": "2571",
        "setSystemName(string)": "infinite",
        "systemBalance()": "2496",
        "withdrawAllToOwner()": "infinite"
      }
    },
    "methodIdentifiers": {
      "SystemName()": "9fa52cab",
      "SystemOwner()": "fab98117",
      "donateMoney()": "a8fa5993",
      "donorAddresses(uint256)": "2b2aee5d",
      "donorBalances(address)": "7b8c8de1",
      "getAllDonatedAddresses()": "c0675b29",
      "getAllDonationAmounts()": "fb949a70",
      "getSystemBalance()": "21f4ae14",
      "getdonorBalances()": "30ecfc31",
      "setSystemName(string)": "a44b7f56",
      "systemBalance()": "75df596a",
      "withdrawAllToOwner()": "80710f39"
    }
  },
  "abi": [
    {
      "inputs": [],
      "stateMutability": "nonpayable",
      "type": "constructor"
    },
    {
      "anonymous": false,
      "inputs": [
        {
          "indexed": false,
          "internalType": "uint256",
          "name": "newBalance",
          "type": "uint256"
        }
      ],
      "name": "SystemBalanceChanged",
      "type": "event"
    },
    {
      "inputs": [],
      "name": "SystemName",
      "outputs": [
        {
          "internalType": "string",
          "name": "",
          "type": "string"
        }
      ],
      "stateMutability": "view",
      "type": "function"
    },
    {
      "inputs": [],
      "name": "SystemOwner",
      "outputs": [
        {
          "internalType": "address",
          "name": "",
          "type": "address"
        }
      ],
      "stateMutability": "view",
      "type": "function"
    },
    {
      "inputs": [],
      "name": "donateMoney",
      "outputs": [],
      "stateMutability": "payable",
      "type": "function"
    },
    {
      "inputs": [
        {
          "internalType": "uint256",
          "name": "",
          "type": "uint256"
        }
      ],
      "name": "donorAddresses",
      "outputs": [
        {
          "internalType": "address",
          "name": "",
          "type": "address"
        }
      ],
      "stateMutability": "view",
      "type": "function"
    },
    {
      "inputs": [
        {
          "internalType": "address",
          "name": "",
          "type": "address"
        }
      ],
      "name": "donorBalances",
      "outputs": [
        {
          "internalType": "uint256",
          "name": "",
          "type": "uint256"
        }
      ],
      "stateMutability": "view",
      "type": "function"
    },
    {
      "inputs": [],
      "name": "getAllDonatedAddresses",
      "outputs": [
        {
          "internalType": "address[]",
          "name": "",
          "type": "address[]"
        }
      ],
      "stateMutability": "view",
      "type": "function"
    },
    {
      "inputs": [],
      "name": "getAllDonationAmounts",
      "outputs": [
        {
          "internalType": "uint256[]",
          "name": "",
          "type": "uint256[]"
        }
      ],
      "stateMutability": "view",
      "type": "function"
    },
    {
      "inputs": [],
      "name": "getSystemBalance",
      "outputs": [
        {
          "internalType": "uint256",
          "name": "",
          "type": "uint256"
        }
      ],
      "stateMutability": "view",
      "type": "function"
    },
    {
      "inputs": [],
      "name": "getdonorBalances",
      "outputs": [
        {
          "internalType": "uint256",
          "name": "",
          "type": "uint256"
        }
      ],
      "stateMutability": "view",
      "type": "function"
    },
    {
      "inputs": [
        {
          "internalType": "string",
          "name": "_name",
          "type": "string"
        }
      ],
      "name": "setSystemName",
      "outputs": [],
      "stateMutability": "nonpayable",
      "type": "function"
    },
    {
      "inputs": [],
      "name": "systemBalance",
      "outputs": [
        {
          "internalType": "uint256",
          "name": "",
          "type": "uint256"
        }
      ],
      "stateMutability": "view",
      "type": "function"
    },
    {
      "inputs": [],
      "name": "withdrawAllToOwner",
      "outputs": [],
      "stateMutability": "nonpayable",
      "type": "function"
    }
  ]
}